{
  "transactions": [
    {
      "hash": "0x19bb32ed4e00b8824e6dc3072aa74c64e1c411a631431d39defb1152055e0ef0",
      "transactionType": "CALL",
      "contractName": null,
      "contractAddress": "0x779877a7b0d9e8603169ddbd7836e478b4624789",
      "function": "transferAndCall(address,uint256,bytes)",
      "arguments": [
        "0x9DdfaCa8183c41ad55329BdeeD9F6A8d53168B1B",
        "3000000000000000000",
        "0xb99c10aa5a31e3ffddd9d551d52597ee810a866999207b393115d547157c7ccc"
      ],
      "transaction": {
        "from": "0x462cebc1fee7ebe6bbf34558242f8c74f3fbe7df",
        "to": "0x779877a7b0d9e8603169ddbd7836e478b4624789",
        "gas": "0x14cbb",
        "value": "0x0",
        "input": "0x4000aea00000000000000000000000009ddfaca8183c41ad55329bdeed9f6a8d53168b1b00000000000000000000000000000000000000000000000029a2241af62c000000000000000000000000000000000000000000000000000000000000000000600000000000000000000000000000000000000000000000000000000000000020b99c10aa5a31e3ffddd9d551d52597ee810a866999207b393115d547157c7ccc",
        "nonce": "0x3",
        "chainId": "0xaa36a7"
      },
      "additionalContracts": [],
      "isFixedGasLimit": false
    }
  ],
  "receipts": [
    {
      "status": "0x1",
      "cumulativeGasUsed": "0x1754e45",
      "logs": [
        {
          "address": "0x779877a7b0d9e8603169ddbd7836e478b4624789",
          "topics": [
            "0xddf252ad1be2c89b69c2b068fc378daa952ba7f163c4a11628f55a4df523b3ef",
            "0x000000000000000000000000462cebc1fee7ebe6bbf34558242f8c74f3fbe7df",
            "0x0000000000000000000000009ddfaca8183c41ad55329bdeed9f6a8d53168b1b"
          ],
          "data": "0x00000000000000000000000000000000000000000000000029a2241af62c0000",
          "blockHash": "0x38544ecd33ad9f3e3398f2f4eba3ba72ee607e6af73f22d58521c31887117f21",
          "blockNumber": "0x6167ad",
          "transactionHash": "0x19bb32ed4e00b8824e6dc3072aa74c64e1c411a631431d39defb1152055e0ef0",
          "transactionIndex": "0xa7",
          "logIndex": "0x132",
          "removed": false
        },
        {
          "address": "0x779877a7b0d9e8603169ddbd7836e478b4624789",
          "topics": [
            "0xe19260aff97b920c7df27010903aeb9c8d2be5d310a2c67824cf3f15396e4c16",
            "0x000000000000000000000000462cebc1fee7ebe6bbf34558242f8c74f3fbe7df",
            "0x0000000000000000000000009ddfaca8183c41ad55329bdeed9f6a8d53168b1b"
          ],
          "data": "0x00000000000000000000000000000000000000000000000029a2241af62c000000000000000000000000000000000000000000000000000000000000000000400000000000000000000000000000000000000000000000000000000000000020b99c10aa5a31e3ffddd9d551d52597ee810a866999207b393115d547157c7ccc",
          "blockHash": "0x38544ecd33ad9f3e3398f2f4eba3ba72ee607e6af73f22d58521c31887117f21",
          "blockNumber": "0x6167ad",
          "transactionHash": "0x19bb32ed4e00b8824e6dc3072aa74c64e1c411a631431d39defb1152055e0ef0",
          "transactionIndex": "0xa7",
          "logIndex": "0x133",
          "removed": false
        },
        {
          "address": "0x9ddfaca8183c41ad55329bdeed9f6a8d53168b1b",
          "topics": [
            "0x1ced9348ff549fceab2ac57cd3a9de38edaaab274b725ee82c23e8fc8c4eec7a",
            "0xb99c10aa5a31e3ffddd9d551d52597ee810a866999207b393115d547157c7ccc"
          ],
          "data": "0x0000000000000000000000000000000000000000000000006f05b59d3b20000000000000000000000000000000000000000000000000000098a7d9b8314c0000",
          "blockHash": "0x38544ecd33ad9f3e3398f2f4eba3ba72ee607e6af73f22d58521c31887117f21",
          "blockNumber": "0x6167ad",
          "transactionHash": "0x19bb32ed4e00b8824e6dc3072aa74c64e1c411a631431d39defb1152055e0ef0",
          "transactionIndex": "0xa7",
          "logIndex": "0x134",
          "removed": false
        }
      ],
      "logsBloom": "0x00000004000000000000000000000000000000000020000000000000020000000400000000000000000000000000000000000000000000000000000000000001000000000400000000000008000000000000000000000000000020000020000008000000000000000000000000000000000000000000000000000010000040000000000000000000000000010000800000000020000200000000000000000000000000000000000000000000010000000000000000000000100004000000000000002002000000000000000000000000000000000000000100000000000000000010000000000000800000000000000000000000000000000000000000000000",
      "type": "0x2",
      "transactionHash": "0x19bb32ed4e00b8824e6dc3072aa74c64e1c411a631431d39defb1152055e0ef0",
      "transactionIndex": "0xa7",
      "blockHash": "0x38544ecd33ad9f3e3398f2f4eba3ba72ee607e6af73f22d58521c31887117f21",
      "blockNumber": "0x6167ad",
      "gasUsed": "0xf0e5",
      "effectiveGasPrice": "0x1670860e6",
      "from": "0x462cebc1fee7ebe6bbf34558242f8c74f3fbe7df",
      "to": "0x779877a7b0d9e8603169ddbd7836e478b4624789",
      "contractAddress": null
    }
  ],
  "libraries": [],
  "pending": [],
  "returns": {},
  "timestamp": 1722061346,
  "chain": 11155111,
  "commit": "a2f2e7e"
}