{
  "transactions": [
    {
      "hash": "0x1d1ea1e7201dc5783a321686b95a732a7e98ced3abb974892ff95698cd1f2052",
      "transactionType": "CALL",
      "contractName": null,
      "contractAddress": "0x779877a7b0d9e8603169ddbd7836e478b4624789",
      "function": "transferAndCall(address,uint256,bytes)",
      "arguments": [
        "0x9DdfaCa8183c41ad55329BdeeD9F6A8d53168B1B",
        "3000000000000000000",
        "0x58a658c034fdb11cf9d33c9f105c450fecb79fe5de319bc1b829ee4d25c86645"
      ],
      "transaction": {
        "from": "0x462cebc1fee7ebe6bbf34558242f8c74f3fbe7df",
        "to": "0x779877a7b0d9e8603169ddbd7836e478b4624789",
        "gas": "0x14cbb",
        "value": "0x0",
        "input": "0x4000aea00000000000000000000000009ddfaca8183c41ad55329bdeed9f6a8d53168b1b00000000000000000000000000000000000000000000000029a2241af62c00000000000000000000000000000000000000000000000000000000000000000060000000000000000000000000000000000000000000000000000000000000002058a658c034fdb11cf9d33c9f105c450fecb79fe5de319bc1b829ee4d25c86645",
        "nonce": "0x4",
        "chainId": "0xaa36a7"
      },
      "additionalContracts": [],
      "isFixedGasLimit": false
    }
  ],
  "receipts": [
    {
      "status": "0x1",
      "cumulativeGasUsed": "0xf25ae3",
      "logs": [
        {
          "address": "0x779877a7b0d9e8603169ddbd7836e478b4624789",
          "topics": [
            "0xddf252ad1be2c89b69c2b068fc378daa952ba7f163c4a11628f55a4df523b3ef",
            "0x000000000000000000000000462cebc1fee7ebe6bbf34558242f8c74f3fbe7df",
            "0x0000000000000000000000009ddfaca8183c41ad55329bdeed9f6a8d53168b1b"
          ],
          "data": "0x00000000000000000000000000000000000000000000000029a2241af62c0000",
          "blockHash": "0xbf91d24c5a026e7a1fbaae7a8ca919fae90b3464dd952431ee5d0b3138e1ff12",
          "blockNumber": "0x6167c5",
          "transactionHash": "0x1d1ea1e7201dc5783a321686b95a732a7e98ced3abb974892ff95698cd1f2052",
          "transactionIndex": "0x68",
          "logIndex": "0xb3",
          "removed": false
        },
        {
          "address": "0x779877a7b0d9e8603169ddbd7836e478b4624789",
          "topics": [
            "0xe19260aff97b920c7df27010903aeb9c8d2be5d310a2c67824cf3f15396e4c16",
            "0x000000000000000000000000462cebc1fee7ebe6bbf34558242f8c74f3fbe7df",
            "0x0000000000000000000000009ddfaca8183c41ad55329bdeed9f6a8d53168b1b"
          ],
          "data": "0x00000000000000000000000000000000000000000000000029a2241af62c00000000000000000000000000000000000000000000000000000000000000000040000000000000000000000000000000000000000000000000000000000000002058a658c034fdb11cf9d33c9f105c450fecb79fe5de319bc1b829ee4d25c86645",
          "blockHash": "0xbf91d24c5a026e7a1fbaae7a8ca919fae90b3464dd952431ee5d0b3138e1ff12",
          "blockNumber": "0x6167c5",
          "transactionHash": "0x1d1ea1e7201dc5783a321686b95a732a7e98ced3abb974892ff95698cd1f2052",
          "transactionIndex": "0x68",
          "logIndex": "0xb4",
          "removed": false
        },
        {
          "address": "0x9ddfaca8183c41ad55329bdeed9f6a8d53168b1b",
          "topics": [
            "0x1ced9348ff549fceab2ac57cd3a9de38edaaab274b725ee82c23e8fc8c4eec7a",
            "0x58a658c034fdb11cf9d33c9f105c450fecb79fe5de319bc1b829ee4d25c86645"
          ],
          "data": "0x0000000000000000000000000000000000000000000000008ac7230489e80000000000000000000000000000000000000000000000000000b469471f80140000",
          "blockHash": "0xbf91d24c5a026e7a1fbaae7a8ca919fae90b3464dd952431ee5d0b3138e1ff12",
          "blockNumber": "0x6167c5",
          "transactionHash": "0x1d1ea1e7201dc5783a321686b95a732a7e98ced3abb974892ff95698cd1f2052",
          "transactionIndex": "0x68",
          "logIndex": "0xb5",
          "removed": false
        }
      ],
      "logsBloom": "0x00000004000000000000000000000000000000000020000000000000020010000400000000000000000000000800000000000000000000000000000000000000000000000000000000000088000000000000000000000000000020000020000008000000000000000000000000000000000000000000000000000010000040000000000000000000000000010000800000000020000000000000000000000000000000000000000000000000010000000000000000000000100004000000000000002002000000000000000000000000000000000000000100000000000000000010000000000000800000000000000000000000000000000000000000000000",
      "type": "0x2",
      "transactionHash": "0x1d1ea1e7201dc5783a321686b95a732a7e98ced3abb974892ff95698cd1f2052",
      "transactionIndex": "0x68",
      "blockHash": "0xbf91d24c5a026e7a1fbaae7a8ca919fae90b3464dd952431ee5d0b3138e1ff12",
      "blockNumber": "0x6167c5",
      "gasUsed": "0xf0e5",
      "effectiveGasPrice": "0x202db3d77",
      "from": "0x462cebc1fee7ebe6bbf34558242f8c74f3fbe7df",
      "to": "0x779877a7b0d9e8603169ddbd7836e478b4624789",
      "contractAddress": null
    }
  ],
  "libraries": [],
  "pending": [],
  "returns": {},
  "timestamp": 1722061696,
  "chain": 11155111,
  "commit": "a2f2e7e"
}